{
  "contractName": "Voter",
  "abi": [
    {
      "constant": true,
      "inputs": [
        {
          "name": "",
          "type": "uint256"
        }
      ],
      "name": "proposals",
      "outputs": [
        {
          "name": "name",
          "type": "bytes32"
        },
        {
          "name": "state",
          "type": "bool"
        },
        {
          "name": "totalVotes",
          "type": "uint256"
        }
      ],
      "payable": false,
      "stateMutability": "view",
      "type": "function"
    },
    {
      "constant": false,
      "inputs": [],
      "name": "countProposals",
      "outputs": [
        {
          "name": "",
          "type": "uint256"
        }
      ],
      "payable": false,
      "stateMutability": "nonpayable",
      "type": "function"
    },
    {
      "constant": false,
      "inputs": [
        {
          "name": "name",
          "type": "bytes32"
        }
      ],
      "name": "addProposal",
      "outputs": [],
      "payable": false,
      "stateMutability": "nonpayable",
      "type": "function"
    },
    {
      "constant": false,
      "inputs": [
        {
          "name": "id",
          "type": "uint256"
        }
      ],
      "name": "getProposalState",
      "outputs": [
        {
          "name": "",
          "type": "bool"
        }
      ],
      "payable": false,
      "stateMutability": "nonpayable",
      "type": "function"
    },
    {
      "constant": false,
      "inputs": [
        {
          "name": "id",
          "type": "uint256"
        }
      ],
      "name": "getProposalName",
      "outputs": [
        {
          "name": "",
          "type": "bytes32"
        }
      ],
      "payable": false,
      "stateMutability": "nonpayable",
      "type": "function"
    },
    {
      "constant": false,
      "inputs": [
        {
          "name": "id",
          "type": "uint256"
        }
      ],
      "name": "getProposalTotalVotes",
      "outputs": [
        {
          "name": "",
          "type": "uint256"
        }
      ],
      "payable": false,
      "stateMutability": "nonpayable",
      "type": "function"
    },
    {
      "constant": false,
      "inputs": [
        {
          "name": "id",
          "type": "uint256"
        }
      ],
      "name": "getProposal",
      "outputs": [
        {
          "name": "",
          "type": "bytes32"
        },
        {
          "name": "",
          "type": "bool"
        }
      ],
      "payable": false,
      "stateMutability": "nonpayable",
      "type": "function"
    },
    {
      "constant": false,
      "inputs": [
        {
          "name": "id",
          "type": "uint256"
        }
      ],
      "name": "vote",
      "outputs": [
        {
          "name": "",
          "type": "bool"
        }
      ],
      "payable": false,
      "stateMutability": "nonpayable",
      "type": "function"
    }
  ],
  "bytecode": "0x608060405234801561001057600080fd5b506105b3806100206000396000f30060806040526004361061008e576000357c0100000000000000000000000000000000000000000000000000000000900463ffffffff1680630121b93f14610093578063013cf08b146100d857806306efe3b0146101335780633373e97514610164578063429b92bf146101a5578063761bbd8a146101ee5780639080936f14610219578063c7f758a81461025e575b600080fd5b34801561009f57600080fd5b506100be600480360381019080803590602001909291905050506102b2565b604051808215151515815260200191505060405180910390f35b3480156100e457600080fd5b50610103600480360381019080803590602001909291905050506103c1565b60405180846000191660001916815260200183151515158152602001828152602001935050505060405180910390f35b34801561013f57600080fd5b506101626004803603810190808035600019169060200190929190505050610407565b005b34801561017057600080fd5b5061018f60048036038101908080359060200190929190505050610498565b6040518082815260200191505060405180910390f35b3480156101b157600080fd5b506101d0600480360381019080803590602001909291905050506104c1565b60405180826000191660001916815260200191505060405180910390f35b3480156101fa57600080fd5b506102036104ea565b6040518082815260200191505060405180910390f35b34801561022557600080fd5b50610244600480360381019080803590602001909291905050506104f6565b604051808215151515815260200191505060405180910390f35b34801561026a57600080fd5b506102896004803603810190808035906020019092919050505061052c565b604051808360001916600019168152602001821515151581526020019250505060405180910390f35b600060016000838154811015156102c557fe5b906000526020600020906004020160030160003373ffffffffffffffffffffffffffffffffffffffff1673ffffffffffffffffffffffffffffffffffffffff168152602001908152602001600020541415156103b757600160008381548110151561032c57fe5b906000526020600020906004020160030160003373ffffffffffffffffffffffffffffffffffffffff1673ffffffffffffffffffffffffffffffffffffffff1681526020019081526020016000208190555060008281548110151561038d57fe5b906000526020600020906004020160020160008154809291906001019190505550600190506103bc565b600090505b919050565b6000818154811015156103d057fe5b90600052602060002090600402016000915090508060000154908060010160009054906101000a900460ff16908060020154905083565b6000606060405190810160405280836000191681526020016001151581526020016000815250908060018154018082558091505090600182039060005260206000209060040201600090919290919091506000820151816000019060001916905560208201518160010160006101000a81548160ff0219169083151502179055506040820151816002015550505050565b600080828154811015156104a857fe5b9060005260206000209060040201600201549050919050565b600080828154811015156104d157fe5b9060005260206000209060040201600001549050919050565b60008080549050905090565b6000808281548110151561050657fe5b906000526020600020906004020160010160009054906101000a900460ff169050919050565b60008060008381548110151561053e57fe5b90600052602060002090600402016000015460008481548110151561055f57fe5b906000526020600020906004020160010160009054906101000a900460ff16915091509150915600a165627a7a72305820d21e54b02647a5c2092209ee4354eeca74fde56f23fd9c1aa4f6a48a604d17630029",
  "source": "pragma solidity ^0.4.8;\n\ncontract Voter {\n    struct Proposal {\n        bytes32 name;\n        bool state;\n        uint totalVotes;\n        mapping (address => uint) votes;\n    }\n\n    Proposal[] public proposals;\n\n    function countProposals() public returns (uint) {\n        return proposals.length;\n    }\n\n    function addProposal(bytes32 name) public {\n        proposals.push(Proposal({\n            name: name,\n            state: true,\n            totalVotes: 0\n        }));\n    }\n\n    function getProposalState(uint id) public returns (bool) {\n        return proposals[id].state;\n    }\n\n    function getProposalName(uint id) public returns (bytes32) {\n        return proposals[id].name;\n    }\n\n    function getProposalTotalVotes(uint id) public returns (uint) {\n        return proposals[id].totalVotes;\n    }\n\n    function getProposal(uint id) public returns (bytes32, bool) {\n        return (proposals[id].name, proposals[id].state);\n    }\n\n    function vote(uint id) public returns (bool) {\n        if (proposals[id].votes[msg.sender] != 1) {\n            proposals[id].votes[msg.sender] = 1;\n            proposals[id].totalVotes++;\n            return true;\n        }\n        return false;\n    }\n}",
  "sourcePath": "/Users/max/Desktop/projects/VueBlockchainTestDapp/contracts/Voter.sol",
  "compiler": {
    "name": "solc",
    "version": "0.4.23+commit.124ca40d.Emscripten.clang"
  },
  "schemaVersion": "2.0.0",
  "updatedAt": "2018-04-30T13:08:58.818Z"
}