{
  "contractName": "Voter",
  "abi": [
    {
      "constant": true,
      "inputs": [
        {
          "name": "",
          "type": "uint256"
        }
      ],
      "name": "proposals",
      "outputs": [
        {
          "name": "name",
          "type": "string"
        }
      ],
      "payable": false,
      "stateMutability": "view",
      "type": "function"
    },
    {
      "constant": false,
      "inputs": [],
      "name": "countProposals",
      "outputs": [
        {
          "name": "",
          "type": "uint256"
        }
      ],
      "payable": false,
      "stateMutability": "nonpayable",
      "type": "function"
    }
  ],
  "bytecode": "0x608060405234801561001057600080fd5b5061021b806100206000396000f30060806040526004361061004c576000357c0100000000000000000000000000000000000000000000000000000000900463ffffffff168063013cf08b14610051578063761bbd8a146100f7575b600080fd5b34801561005d57600080fd5b5061007c60048036038101908080359060200190929190505050610122565b6040518080602001828103825283818151815260200191508051906020019080838360005b838110156100bc5780820151818401526020810190506100a1565b50505050905090810190601f1680156100e95780820380516001836020036101000a031916815260200191505b509250505060405180910390f35b34801561010357600080fd5b5061010c6101e3565b6040518082815260200191505060405180910390f35b60008181548110151561013157fe5b90600052602060002001600091509050806000018054600181600116156101000203166002900480601f0160208091040260200160405190810160405280929190818152602001828054600181600116156101000203166002900480156101d95780601f106101ae576101008083540402835291602001916101d9565b820191906000526020600020905b8154815290600101906020018083116101bc57829003601f168201915b5050505050905081565b600080805490509050905600a165627a7a72305820206fb3c388d238cbabddda0aacf72f90ef6f8f54f0ec810a7b570634cf2d41ad0029",
  "source": "pragma solidity ^0.4.8;\n\ncontract Voter {\n    struct Proposal {\n        string name;\n    }\n\n    Proposal[] public proposals;\n\n    function countProposals() public returns (uint) {\n        return proposals.length;\n    }\n}",
  "sourcePath": "/Users/max/Desktop/projects/VueBlockchainTestDapp/contracts/Voter.sol",
  "compiler": {
    "name": "solc",
    "version": "0.4.23+commit.124ca40d.Emscripten.clang"
  },
  "schemaVersion": "2.0.0",
  "updatedAt": "2018-04-30T09:20:29.839Z"
}