{
  "contractName": "Voting",
  "abi": [
    {
      "constant": true,
      "inputs": [],
      "name": "counter",
      "outputs": [
        {
          "name": "",
          "type": "uint256"
        }
      ],
      "payable": false,
      "stateMutability": "view",
      "type": "function"
    },
    {
      "inputs": [],
      "payable": false,
      "stateMutability": "nonpayable",
      "type": "constructor"
    },
    {
      "constant": false,
      "inputs": [],
      "name": "increment",
      "outputs": [],
      "payable": false,
      "stateMutability": "nonpayable",
      "type": "function"
    },
    {
      "constant": false,
      "inputs": [],
      "name": "getCounter",
      "outputs": [
        {
          "name": "",
          "type": "uint256"
        }
      ],
      "payable": false,
      "stateMutability": "nonpayable",
      "type": "function"
    }
  ],
  "bytecode": "0x608060405234801561001057600080fd5b506001600081905550610109806100286000396000f3006080604052600436106053576000357c0100000000000000000000000000000000000000000000000000000000900463ffffffff16806361bc221a1460585780638ada066e146080578063d09de08a1460a8575b600080fd5b348015606357600080fd5b50606a60bc565b6040518082815260200191505060405180910390f35b348015608b57600080fd5b50609260c2565b6040518082815260200191505060405180910390f35b34801560b357600080fd5b5060ba60cb565b005b60005481565b60008054905090565b600160008082825401925050819055505600a165627a7a7230582039be63d40c474b2490b65e2fcd398d997075e3477b35608c05c82396cf164a670029",
  "source": "pragma solidity ^0.4.8;\n\ncontract Voting {\n    uint public counter;\n\n    function Voting() public {\n        counter = 1;\n    }\n\n    function increment() public {\n        counter += 1;\n    }\n\n    function getCounter() public returns (uint) {\n        return counter;\n    }\n}",
  "sourcePath": "/Users/max/Desktop/projects/VueBlockchainTestDapp/contracts/Voting.sol",
  "compiler": {
    "name": "solc",
    "version": "0.4.23+commit.124ca40d.Emscripten.clang"
  },
  "schemaVersion": "2.0.0",
  "updatedAt": "2018-04-29T17:23:26.412Z"
}